{
	"Lottery.sol": {
		"Lottery": {
			"abi": [
				{
					"inputs": [],
					"stateMutability": "nonpayable",
					"type": "constructor"
				},
				{
					"inputs": [],
					"name": "getBalance",
					"outputs": [
						{
							"internalType": "uint256",
							"name": "",
							"type": "uint256"
						}
					],
					"stateMutability": "view",
					"type": "function"
				},
				{
					"inputs": [],
					"name": "manager",
					"outputs": [
						{
							"internalType": "address",
							"name": "",
							"type": "address"
						}
					],
					"stateMutability": "view",
					"type": "function"
				},
				{
					"inputs": [
						{
							"internalType": "uint256",
							"name": "",
							"type": "uint256"
						}
					],
					"name": "participants",
					"outputs": [
						{
							"internalType": "address payable",
							"name": "",
							"type": "address"
						}
					],
					"stateMutability": "view",
					"type": "function"
				},
				{
					"inputs": [],
					"name": "random",
					"outputs": [
						{
							"internalType": "uint256",
							"name": "",
							"type": "uint256"
						}
					],
					"stateMutability": "view",
					"type": "function"
				},
				{
					"stateMutability": "payable",
					"type": "receive"
				}
			],
			"devdoc": {
				"kind": "dev",
				"methods": {},
				"version": 1
			},
			"evm": {
				"assembly": "    /* \"Lottery.sol\":75:665  contract Lottery {\r... */\n  mstore(0x40, 0x80)\n    /* \"Lottery.sol\":174:230  constructor()\r... */\n  callvalue\n  dup1\n  iszero\n  tag_1\n  jumpi\n  0x00\n  dup1\n  revert\ntag_1:\n  pop\n    /* \"Lottery.sol\":212:222  msg.sender */\n  caller\n    /* \"Lottery.sol\":204:211  manager */\n  0x00\n  dup1\n    /* \"Lottery.sol\":204:222  manager=msg.sender */\n  0x0100\n  exp\n  dup2\n  sload\n  dup2\n  0xffffffffffffffffffffffffffffffffffffffff\n  mul\n  not\n  and\n  swap1\n  dup4\n  0xffffffffffffffffffffffffffffffffffffffff\n  and\n  mul\n  or\n  swap1\n  sstore\n  pop\n    /* \"Lottery.sol\":75:665  contract Lottery {\r... */\n  dataSize(sub_0)\n  dup1\n  dataOffset(sub_0)\n  0x00\n  codecopy\n  0x00\n  return\nstop\n\nsub_0: assembly {\n        /* \"Lottery.sol\":75:665  contract Lottery {\r... */\n      mstore(0x40, 0x80)\n      jumpi(tag_1, lt(calldatasize, 0x04))\n      shr(0xe0, calldataload(0x00))\n      dup1\n      0x12065fe0\n      eq\n      tag_3\n      jumpi\n      dup1\n      0x35c1d349\n      eq\n      tag_4\n      jumpi\n      dup1\n      0x481c6a75\n      eq\n      tag_5\n      jumpi\n      dup1\n      0x5ec01e4d\n      eq\n      tag_6\n      jumpi\n      jump(tag_2)\n    tag_1:\n      jumpi(tag_2, calldatasize)\n        /* \"Lottery.sol\":303:310  1 ether */\n      0x0de0b6b3a7640000\n        /* \"Lottery.sol\":290:299  msg.value */\n      callvalue\n        /* \"Lottery.sol\":290:310  msg.value == 1 ether */\n      eq\n        /* \"Lottery.sol\":282:311  require(msg.value == 1 ether) */\n      tag_9\n      jumpi\n      0x00\n      dup1\n      revert\n    tag_9:\n        /* \"Lottery.sol\":322:334  participants */\n      0x01\n        /* \"Lottery.sol\":348:358  msg.sender */\n      caller\n        /* \"Lottery.sol\":322:360  participants.push(payable(msg.sender)) */\n      swap1\n      dup1\n      0x01\n      dup2\n      sload\n      add\n      dup1\n      dup3\n      sstore\n      dup1\n      swap2\n      pop\n      pop\n      0x01\n      swap1\n      sub\n      swap1\n      0x00\n      mstore\n      keccak256(0x00, 0x20)\n      add\n      0x00\n      swap1\n      swap2\n      swap1\n      swap2\n      swap1\n      swap2\n      0x0100\n      exp\n      dup2\n      sload\n      dup2\n      0xffffffffffffffffffffffffffffffffffffffff\n      mul\n      not\n      and\n      swap1\n      dup4\n      0xffffffffffffffffffffffffffffffffffffffff\n      and\n      mul\n      or\n      swap1\n      sstore\n      pop\n        /* \"Lottery.sol\":75:665  contract Lottery {\r... */\n      stop\n    tag_2:\n      0x00\n      dup1\n      revert\n        /* \"Lottery.sol\":376:518  function  getBalance() public view returns(uint)\r... */\n    tag_3:\n      callvalue\n      dup1\n      iszero\n      tag_11\n      jumpi\n      0x00\n      dup1\n      revert\n    tag_11:\n      pop\n      tag_12\n      tag_13\n      jump\t// in\n    tag_12:\n      mload(0x40)\n      tag_14\n      swap2\n      swap1\n      tag_15\n      jump\t// in\n    tag_14:\n      mload(0x40)\n      dup1\n      swap2\n      sub\n      swap1\n      return\n        /* \"Lottery.sol\":128:165  address payable[] public participants */\n    tag_4:\n      callvalue\n      dup1\n      iszero\n      tag_16\n      jumpi\n      0x00\n      dup1\n      revert\n    tag_16:\n      pop\n      tag_17\n      0x04\n      dup1\n      calldatasize\n      sub\n      dup2\n      add\n      swap1\n      tag_18\n      swap2\n      swap1\n      tag_19\n      jump\t// in\n    tag_18:\n      tag_20\n      jump\t// in\n    tag_17:\n      mload(0x40)\n      tag_21\n      swap2\n      swap1\n      tag_22\n      jump\t// in\n    tag_21:\n      mload(0x40)\n      dup1\n      swap2\n      sub\n      swap1\n      return\n        /* \"Lottery.sol\":99:121  address public manager */\n    tag_5:\n      callvalue\n      dup1\n      iszero\n      tag_23\n      jumpi\n      0x00\n      dup1\n      revert\n    tag_23:\n      pop\n      tag_24\n      tag_25\n      jump\t// in\n    tag_24:\n      mload(0x40)\n      tag_26\n      swap2\n      swap1\n      tag_27\n      jump\t// in\n    tag_26:\n      mload(0x40)\n      dup1\n      swap2\n      sub\n      swap1\n      return\n        /* \"Lottery.sol\":526:662  function random() public view returns(uint){\r... */\n    tag_6:\n      callvalue\n      dup1\n      iszero\n      tag_28\n      jumpi\n      0x00\n      dup1\n      revert\n    tag_28:\n      pop\n      tag_29\n      tag_30\n      jump\t// in\n    tag_29:\n      mload(0x40)\n      tag_31\n      swap2\n      swap1\n      tag_15\n      jump\t// in\n    tag_31:\n      mload(0x40)\n      dup1\n      swap2\n      sub\n      swap1\n      return\n        /* \"Lottery.sol\":376:518  function  getBalance() public view returns(uint)\r... */\n    tag_13:\n        /* \"Lottery.sol\":419:423  uint */\n      0x00\n        /* \"Lottery.sol\":463:470  manager */\n      dup1\n      0x00\n      swap1\n      sload\n      swap1\n      0x0100\n      exp\n      swap1\n      div\n      0xffffffffffffffffffffffffffffffffffffffff\n      and\n        /* \"Lottery.sol\":449:470  msg.sender == manager */\n      0xffffffffffffffffffffffffffffffffffffffff\n      and\n        /* \"Lottery.sol\":449:459  msg.sender */\n      caller\n        /* \"Lottery.sol\":449:470  msg.sender == manager */\n      0xffffffffffffffffffffffffffffffffffffffff\n      and\n      eq\n        /* \"Lottery.sol\":441:471  require(msg.sender == manager) */\n      tag_33\n      jumpi\n      0x00\n      dup1\n      revert\n    tag_33:\n        /* \"Lottery.sol\":489:510  address(this).balance */\n      selfbalance\n        /* \"Lottery.sol\":482:510  return address(this).balance */\n      swap1\n      pop\n        /* \"Lottery.sol\":376:518  function  getBalance() public view returns(uint)\r... */\n      swap1\n      jump\t// out\n        /* \"Lottery.sol\":128:165  address payable[] public participants */\n    tag_20:\n      0x01\n      dup2\n      dup2\n      sload\n      dup2\n      lt\n      tag_34\n      jumpi\n      0x00\n      dup1\n      revert\n    tag_34:\n      swap1\n      0x00\n      mstore\n      keccak256(0x00, 0x20)\n      add\n      0x00\n      swap2\n      pop\n      sload\n      swap1\n      0x0100\n      exp\n      swap1\n      div\n      0xffffffffffffffffffffffffffffffffffffffff\n      and\n      dup2\n      jump\t// out\n        /* \"Lottery.sol\":99:121  address public manager */\n    tag_25:\n      0x00\n      dup1\n      sload\n      swap1\n      0x0100\n      exp\n      swap1\n      div\n      0xffffffffffffffffffffffffffffffffffffffff\n      and\n      dup2\n      jump\t// out\n        /* \"Lottery.sol\":526:662  function random() public view returns(uint){\r... */\n    tag_30:\n        /* \"Lottery.sol\":564:568  uint */\n      0x00\n        /* \"Lottery.sol\":607:623  block.difficulty */\n      difficulty\n        /* \"Lottery.sol\":624:639  block.timestamp */\n      timestamp\n        /* \"Lottery.sol\":640:652  participants */\n      0x01\n        /* \"Lottery.sol\":590:653  abi.encodePacked(block.difficulty,block.timestamp,participants) */\n      add(0x20, mload(0x40))\n      tag_37\n      swap4\n      swap3\n      swap2\n      swap1\n      tag_38\n      jump\t// in\n    tag_37:\n      mload(0x40)\n      0x20\n      dup2\n      dup4\n      sub\n      sub\n      dup2\n      mstore\n      swap1\n      0x40\n      mstore\n        /* \"Lottery.sol\":580:654  keccak256(abi.encodePacked(block.difficulty,block.timestamp,participants)) */\n      dup1\n      mload\n      swap1\n      0x20\n      add\n      keccak256\n      pop\n        /* \"Lottery.sol\":526:662  function random() public view returns(uint){\r... */\n      swap1\n      jump\t// out\n        /* \"#utility.yul\":7:146   */\n    tag_40:\n        /* \"#utility.yul\":53:58   */\n      0x00\n        /* \"#utility.yul\":91:97   */\n      dup2\n        /* \"#utility.yul\":78:98   */\n      calldataload\n        /* \"#utility.yul\":69:98   */\n      swap1\n      pop\n        /* \"#utility.yul\":107:140   */\n      tag_42\n        /* \"#utility.yul\":134:139   */\n      dup2\n        /* \"#utility.yul\":107:140   */\n      tag_43\n      jump\t// in\n    tag_42:\n        /* \"#utility.yul\":7:146   */\n      swap3\n      swap2\n      pop\n      pop\n      jump\t// out\n        /* \"#utility.yul\":152:481   */\n    tag_19:\n        /* \"#utility.yul\":211:217   */\n      0x00\n        /* \"#utility.yul\":260:262   */\n      0x20\n        /* \"#utility.yul\":248:257   */\n      dup3\n        /* \"#utility.yul\":239:246   */\n      dup5\n        /* \"#utility.yul\":235:258   */\n      sub\n        /* \"#utility.yul\":231:263   */\n      slt\n        /* \"#utility.yul\":228:347   */\n      iszero\n      tag_45\n      jumpi\n        /* \"#utility.yul\":266:345   */\n      tag_46\n      tag_47\n      jump\t// in\n    tag_46:\n        /* \"#utility.yul\":228:347   */\n    tag_45:\n        /* \"#utility.yul\":386:387   */\n      0x00\n        /* \"#utility.yul\":411:464   */\n      tag_48\n        /* \"#utility.yul\":456:463   */\n      dup5\n        /* \"#utility.yul\":447:453   */\n      dup3\n        /* \"#utility.yul\":436:445   */\n      dup6\n        /* \"#utility.yul\":432:454   */\n      add\n        /* \"#utility.yul\":411:464   */\n      tag_40\n      jump\t// in\n    tag_48:\n        /* \"#utility.yul\":401:464   */\n      swap2\n      pop\n        /* \"#utility.yul\":357:474   */\n      pop\n        /* \"#utility.yul\":152:481   */\n      swap3\n      swap2\n      pop\n      pop\n      jump\t// out\n        /* \"#utility.yul\":487:714   */\n    tag_49:\n        /* \"#utility.yul\":580:590   */\n      0x00\n        /* \"#utility.yul\":601:671   */\n      tag_51\n        /* \"#utility.yul\":667:670   */\n      dup4\n        /* \"#utility.yul\":659:665   */\n      dup4\n        /* \"#utility.yul\":601:671   */\n      tag_52\n      jump\t// in\n    tag_51:\n        /* \"#utility.yul\":703:707   */\n      0x20\n        /* \"#utility.yul\":698:701   */\n      dup4\n        /* \"#utility.yul\":694:708   */\n      add\n        /* \"#utility.yul\":680:708   */\n      swap1\n      pop\n        /* \"#utility.yul\":487:714   */\n      swap3\n      swap2\n      pop\n      pop\n      jump\t// out\n        /* \"#utility.yul\":720:862   */\n    tag_53:\n        /* \"#utility.yul\":823:855   */\n      tag_55\n        /* \"#utility.yul\":849:854   */\n      dup2\n        /* \"#utility.yul\":823:855   */\n      tag_56\n      jump\t// in\n    tag_55:\n        /* \"#utility.yul\":818:821   */\n      dup3\n        /* \"#utility.yul\":811:856   */\n      mstore\n        /* \"#utility.yul\":720:862   */\n      pop\n      pop\n      jump\t// out\n        /* \"#utility.yul\":868:1008   */\n    tag_52:\n        /* \"#utility.yul\":969:1001   */\n      tag_58\n        /* \"#utility.yul\":995:1000   */\n      dup2\n        /* \"#utility.yul\":969:1001   */\n      tag_56\n      jump\t// in\n    tag_58:\n        /* \"#utility.yul\":964:967   */\n      dup3\n        /* \"#utility.yul\":957:1002   */\n      mstore\n        /* \"#utility.yul\":868:1008   */\n      pop\n      pop\n      jump\t// out\n        /* \"#utility.yul\":1014:1132   */\n    tag_59:\n        /* \"#utility.yul\":1101:1125   */\n      tag_61\n        /* \"#utility.yul\":1119:1124   */\n      dup2\n        /* \"#utility.yul\":1101:1125   */\n      tag_62\n      jump\t// in\n    tag_61:\n        /* \"#utility.yul\":1096:1099   */\n      dup3\n        /* \"#utility.yul\":1089:1126   */\n      mstore\n        /* \"#utility.yul\":1014:1132   */\n      pop\n      pop\n      jump\t// out\n        /* \"#utility.yul\":1184:2051   */\n    tag_63:\n        /* \"#utility.yul\":1334:1337   */\n      0x00\n        /* \"#utility.yul\":1363:1422   */\n      tag_65\n        /* \"#utility.yul\":1416:1421   */\n      dup3\n        /* \"#utility.yul\":1363:1422   */\n      tag_66\n      jump\t// in\n    tag_65:\n        /* \"#utility.yul\":1438:1550   */\n      tag_67\n        /* \"#utility.yul\":1543:1549   */\n      dup2\n        /* \"#utility.yul\":1538:1541   */\n      dup6\n        /* \"#utility.yul\":1438:1550   */\n      tag_68\n      jump\t// in\n    tag_67:\n        /* \"#utility.yul\":1431:1550   */\n      swap4\n      pop\n        /* \"#utility.yul\":1574:1635   */\n      tag_69\n        /* \"#utility.yul\":1629:1634   */\n      dup4\n        /* \"#utility.yul\":1574:1635   */\n      tag_70\n      jump\t// in\n    tag_69:\n        /* \"#utility.yul\":1658:1665   */\n      dup1\n        /* \"#utility.yul\":1689:1690   */\n      0x00\n        /* \"#utility.yul\":1674:2026   */\n    tag_71:\n        /* \"#utility.yul\":1699:1705   */\n      dup4\n        /* \"#utility.yul\":1696:1697   */\n      dup2\n        /* \"#utility.yul\":1693:1706   */\n      lt\n        /* \"#utility.yul\":1674:2026   */\n      iszero\n      tag_73\n      jumpi\n        /* \"#utility.yul\":1769:1821   */\n      tag_74\n        /* \"#utility.yul\":1814:1820   */\n      dup3\n        /* \"#utility.yul\":1769:1821   */\n      tag_75\n      jump\t// in\n    tag_74:\n        /* \"#utility.yul\":1841:1928   */\n      tag_76\n        /* \"#utility.yul\":1924:1927   */\n      dup9\n        /* \"#utility.yul\":1909:1922   */\n      dup3\n        /* \"#utility.yul\":1841:1928   */\n      tag_49\n      jump\t// in\n    tag_76:\n        /* \"#utility.yul\":1834:1928   */\n      swap8\n      pop\n        /* \"#utility.yul\":1951:2016   */\n      tag_77\n        /* \"#utility.yul\":2009:2015   */\n      dup4\n        /* \"#utility.yul\":1951:2016   */\n      tag_78\n      jump\t// in\n    tag_77:\n        /* \"#utility.yul\":1941:2016   */\n      swap3\n      pop\n        /* \"#utility.yul\":1734:2026   */\n      pop\n        /* \"#utility.yul\":1721:1722   */\n      0x01\n        /* \"#utility.yul\":1718:1719   */\n      dup2\n        /* \"#utility.yul\":1714:1723   */\n      add\n        /* \"#utility.yul\":1709:1723   */\n      swap1\n      pop\n        /* \"#utility.yul\":1674:2026   */\n      jump(tag_71)\n    tag_73:\n        /* \"#utility.yul\":1678:1692   */\n      pop\n        /* \"#utility.yul\":2042:2045   */\n      dup6\n        /* \"#utility.yul\":2035:2045   */\n      swap4\n      pop\n        /* \"#utility.yul\":1339:2051   */\n      pop\n      pop\n      pop\n        /* \"#utility.yul\":1184:2051   */\n      swap3\n      swap2\n      pop\n      pop\n      jump\t// out\n        /* \"#utility.yul\":2057:2175   */\n    tag_79:\n        /* \"#utility.yul\":2144:2168   */\n      tag_81\n        /* \"#utility.yul\":2162:2167   */\n      dup2\n        /* \"#utility.yul\":2144:2168   */\n      tag_82\n      jump\t// in\n    tag_81:\n        /* \"#utility.yul\":2139:2142   */\n      dup3\n        /* \"#utility.yul\":2132:2169   */\n      mstore\n        /* \"#utility.yul\":2057:2175   */\n      pop\n      pop\n      jump\t// out\n        /* \"#utility.yul\":2181:2338   */\n    tag_83:\n        /* \"#utility.yul\":2286:2331   */\n      tag_85\n        /* \"#utility.yul\":2306:2330   */\n      tag_86\n        /* \"#utility.yul\":2324:2329   */\n      dup3\n        /* \"#utility.yul\":2306:2330   */\n      tag_82\n      jump\t// in\n    tag_86:\n        /* \"#utility.yul\":2286:2331   */\n      tag_87\n      jump\t// in\n    tag_85:\n        /* \"#utility.yul\":2281:2284   */\n      dup3\n        /* \"#utility.yul\":2274:2332   */\n      mstore\n        /* \"#utility.yul\":2181:2338   */\n      pop\n      pop\n      jump\t// out\n        /* \"#utility.yul\":2344:2987   */\n    tag_38:\n        /* \"#utility.yul\":2575:2578   */\n      0x00\n        /* \"#utility.yul\":2590:2665   */\n      tag_89\n        /* \"#utility.yul\":2661:2664   */\n      dup3\n        /* \"#utility.yul\":2652:2658   */\n      dup7\n        /* \"#utility.yul\":2590:2665   */\n      tag_83\n      jump\t// in\n    tag_89:\n        /* \"#utility.yul\":2690:2692   */\n      0x20\n        /* \"#utility.yul\":2685:2688   */\n      dup3\n        /* \"#utility.yul\":2681:2693   */\n      add\n        /* \"#utility.yul\":2674:2693   */\n      swap2\n      pop\n        /* \"#utility.yul\":2703:2778   */\n      tag_90\n        /* \"#utility.yul\":2774:2777   */\n      dup3\n        /* \"#utility.yul\":2765:2771   */\n      dup6\n        /* \"#utility.yul\":2703:2778   */\n      tag_83\n      jump\t// in\n    tag_90:\n        /* \"#utility.yul\":2803:2805   */\n      0x20\n        /* \"#utility.yul\":2798:2801   */\n      dup3\n        /* \"#utility.yul\":2794:2806   */\n      add\n        /* \"#utility.yul\":2787:2806   */\n      swap2\n      pop\n        /* \"#utility.yul\":2823:2961   */\n      tag_91\n        /* \"#utility.yul\":2957:2960   */\n      dup3\n        /* \"#utility.yul\":2948:2954   */\n      dup5\n        /* \"#utility.yul\":2823:2961   */\n      tag_63\n      jump\t// in\n    tag_91:\n        /* \"#utility.yul\":2816:2961   */\n      swap2\n      pop\n        /* \"#utility.yul\":2978:2981   */\n      dup2\n        /* \"#utility.yul\":2971:2981   */\n      swap1\n      pop\n        /* \"#utility.yul\":2344:2987   */\n      swap5\n      swap4\n      pop\n      pop\n      pop\n      pop\n      jump\t// out\n        /* \"#utility.yul\":2993:3215   */\n    tag_27:\n        /* \"#utility.yul\":3086:3090   */\n      0x00\n        /* \"#utility.yul\":3124:3126   */\n      0x20\n        /* \"#utility.yul\":3113:3122   */\n      dup3\n        /* \"#utility.yul\":3109:3127   */\n      add\n        /* \"#utility.yul\":3101:3127   */\n      swap1\n      pop\n        /* \"#utility.yul\":3137:3208   */\n      tag_93\n        /* \"#utility.yul\":3205:3206   */\n      0x00\n        /* \"#utility.yul\":3194:3203   */\n      dup4\n        /* \"#utility.yul\":3190:3207   */\n      add\n        /* \"#utility.yul\":3181:3187   */\n      dup5\n        /* \"#utility.yul\":3137:3208   */\n      tag_59\n      jump\t// in\n    tag_93:\n        /* \"#utility.yul\":2993:3215   */\n      swap3\n      swap2\n      pop\n      pop\n      jump\t// out\n        /* \"#utility.yul\":3221:3475   */\n    tag_22:\n        /* \"#utility.yul\":3330:3334   */\n      0x00\n        /* \"#utility.yul\":3368:3370   */\n      0x20\n        /* \"#utility.yul\":3357:3366   */\n      dup3\n        /* \"#utility.yul\":3353:3371   */\n      add\n        /* \"#utility.yul\":3345:3371   */\n      swap1\n      pop\n        /* \"#utility.yul\":3381:3468   */\n      tag_95\n        /* \"#utility.yul\":3465:3466   */\n      0x00\n        /* \"#utility.yul\":3454:3463   */\n      dup4\n        /* \"#utility.yul\":3450:3467   */\n      add\n        /* \"#utility.yul\":3441:3447   */\n      dup5\n        /* \"#utility.yul\":3381:3468   */\n      tag_53\n      jump\t// in\n    tag_95:\n        /* \"#utility.yul\":3221:3475   */\n      swap3\n      swap2\n      pop\n      pop\n      jump\t// out\n        /* \"#utility.yul\":3481:3703   */\n    tag_15:\n        /* \"#utility.yul\":3574:3578   */\n      0x00\n        /* \"#utility.yul\":3612:3614   */\n      0x20\n        /* \"#utility.yul\":3601:3610   */\n      dup3\n        /* \"#utility.yul\":3597:3615   */\n      add\n        /* \"#utility.yul\":3589:3615   */\n      swap1\n      pop\n        /* \"#utility.yul\":3625:3696   */\n      tag_97\n        /* \"#utility.yul\":3693:3694   */\n      0x00\n        /* \"#utility.yul\":3682:3691   */\n      dup4\n        /* \"#utility.yul\":3678:3695   */\n      add\n        /* \"#utility.yul\":3669:3675   */\n      dup5\n        /* \"#utility.yul\":3625:3696   */\n      tag_79\n      jump\t// in\n    tag_97:\n        /* \"#utility.yul\":3481:3703   */\n      swap3\n      swap2\n      pop\n      pop\n      jump\t// out\n        /* \"#utility.yul\":3790:3954   */\n    tag_70:\n        /* \"#utility.yul\":3862:3866   */\n      0x00\n        /* \"#utility.yul\":3885:3888   */\n      dup2\n        /* \"#utility.yul\":3877:3888   */\n      swap1\n      pop\n        /* \"#utility.yul\":3908:3911   */\n      dup2\n        /* \"#utility.yul\":3905:3906   */\n      0x00\n        /* \"#utility.yul\":3898:3912   */\n      mstore\n        /* \"#utility.yul\":3942:3946   */\n      0x20\n        /* \"#utility.yul\":3939:3940   */\n      0x00\n        /* \"#utility.yul\":3929:3947   */\n      keccak256\n        /* \"#utility.yul\":3921:3947   */\n      swap1\n      pop\n        /* \"#utility.yul\":3790:3954   */\n      swap2\n      swap1\n      pop\n      jump\t// out\n        /* \"#utility.yul\":3960:4079   */\n    tag_66:\n        /* \"#utility.yul\":4032:4038   */\n      0x00\n        /* \"#utility.yul\":4066:4071   */\n      dup2\n        /* \"#utility.yul\":4060:4072   */\n      sload\n        /* \"#utility.yul\":4050:4072   */\n      swap1\n      pop\n        /* \"#utility.yul\":3960:4079   */\n      swap2\n      swap1\n      pop\n      jump\t// out\n        /* \"#utility.yul\":4085:4203   */\n    tag_78:\n        /* \"#utility.yul\":4160:4164   */\n      0x00\n        /* \"#utility.yul\":4192:4196   */\n      0x01\n        /* \"#utility.yul\":4187:4190   */\n      dup3\n        /* \"#utility.yul\":4183:4197   */\n      add\n        /* \"#utility.yul\":4175:4197   */\n      swap1\n      pop\n        /* \"#utility.yul\":4085:4203   */\n      swap2\n      swap1\n      pop\n      jump\t// out\n        /* \"#utility.yul\":4209:4380   */\n    tag_68:\n        /* \"#utility.yul\":4334:4345   */\n      0x00\n        /* \"#utility.yul\":4371:4374   */\n      dup2\n        /* \"#utility.yul\":4356:4374   */\n      swap1\n      pop\n        /* \"#utility.yul\":4209:4380   */\n      swap3\n      swap2\n      pop\n      pop\n      jump\t// out\n        /* \"#utility.yul\":4386:4533   */\n    tag_104:\n        /* \"#utility.yul\":4444:4451   */\n      0x00\n        /* \"#utility.yul\":4484:4526   */\n      0xffffffffffffffffffffffffffffffffffffffff\n        /* \"#utility.yul\":4477:4482   */\n      dup3\n        /* \"#utility.yul\":4473:4527   */\n      and\n        /* \"#utility.yul\":4462:4527   */\n      swap1\n      pop\n        /* \"#utility.yul\":4386:4533   */\n      swap2\n      swap1\n      pop\n      jump\t// out\n        /* \"#utility.yul\":4539:4635   */\n    tag_62:\n        /* \"#utility.yul\":4576:4583   */\n      0x00\n        /* \"#utility.yul\":4605:4629   */\n      tag_107\n        /* \"#utility.yul\":4623:4628   */\n      dup3\n        /* \"#utility.yul\":4605:4629   */\n      tag_108\n      jump\t// in\n    tag_107:\n        /* \"#utility.yul\":4594:4629   */\n      swap1\n      pop\n        /* \"#utility.yul\":4539:4635   */\n      swap2\n      swap1\n      pop\n      jump\t// out\n        /* \"#utility.yul\":4641:4745   */\n    tag_56:\n        /* \"#utility.yul\":4686:4693   */\n      0x00\n        /* \"#utility.yul\":4715:4739   */\n      tag_110\n        /* \"#utility.yul\":4733:4738   */\n      dup3\n        /* \"#utility.yul\":4715:4739   */\n      tag_108\n      jump\t// in\n    tag_110:\n        /* \"#utility.yul\":4704:4739   */\n      swap1\n      pop\n        /* \"#utility.yul\":4641:4745   */\n      swap2\n      swap1\n      pop\n      jump\t// out\n        /* \"#utility.yul\":4751:4877   */\n    tag_108:\n        /* \"#utility.yul\":4788:4795   */\n      0x00\n        /* \"#utility.yul\":4828:4870   */\n      0xffffffffffffffffffffffffffffffffffffffff\n        /* \"#utility.yul\":4821:4826   */\n      dup3\n        /* \"#utility.yul\":4817:4871   */\n      and\n        /* \"#utility.yul\":4806:4871   */\n      swap1\n      pop\n        /* \"#utility.yul\":4751:4877   */\n      swap2\n      swap1\n      pop\n      jump\t// out\n        /* \"#utility.yul\":4883:4960   */\n    tag_82:\n        /* \"#utility.yul\":4920:4927   */\n      0x00\n        /* \"#utility.yul\":4949:4954   */\n      dup2\n        /* \"#utility.yul\":4938:4954   */\n      swap1\n      pop\n        /* \"#utility.yul\":4883:4960   */\n      swap2\n      swap1\n      pop\n      jump\t// out\n        /* \"#utility.yul\":4966:5148   */\n    tag_113:\n        /* \"#utility.yul\":5043:5048   */\n      0x00\n        /* \"#utility.yul\":5068:5142   */\n      tag_115\n        /* \"#utility.yul\":5107:5141   */\n      tag_116\n        /* \"#utility.yul\":5130:5140   */\n      dup4\n        /* \"#utility.yul\":5107:5141   */\n      tag_117\n      jump\t// in\n    tag_116:\n        /* \"#utility.yul\":5068:5142   */\n      tag_104\n      jump\t// in\n    tag_115:\n        /* \"#utility.yul\":5059:5142   */\n      swap1\n      pop\n        /* \"#utility.yul\":4966:5148   */\n      swap2\n      swap1\n      pop\n      jump\t// out\n        /* \"#utility.yul\":5154:5233   */\n    tag_87:\n        /* \"#utility.yul\":5193:5200   */\n      0x00\n        /* \"#utility.yul\":5222:5227   */\n      dup2\n        /* \"#utility.yul\":5211:5227   */\n      swap1\n      pop\n        /* \"#utility.yul\":5154:5233   */\n      swap2\n      swap1\n      pop\n      jump\t// out\n        /* \"#utility.yul\":5239:5399   */\n    tag_75:\n        /* \"#utility.yul\":5302:5307   */\n      0x00\n        /* \"#utility.yul\":5327:5392   */\n      tag_120\n        /* \"#utility.yul\":5386:5390   */\n      dup3\n        /* \"#utility.yul\":5380:5391   */\n      sload\n        /* \"#utility.yul\":5327:5392   */\n      tag_113\n      jump\t// in\n    tag_120:\n        /* \"#utility.yul\":5318:5392   */\n      swap1\n      pop\n        /* \"#utility.yul\":5239:5399   */\n      swap2\n      swap1\n      pop\n      jump\t// out\n        /* \"#utility.yul\":5528:5645   */\n    tag_47:\n        /* \"#utility.yul\":5637:5638   */\n      0x00\n        /* \"#utility.yul\":5634:5635   */\n      dup1\n        /* \"#utility.yul\":5627:5639   */\n      revert\n        /* \"#utility.yul\":5651:5753   */\n    tag_117:\n        /* \"#utility.yul\":5693:5701   */\n      0x00\n        /* \"#utility.yul\":5740:5745   */\n      dup2\n        /* \"#utility.yul\":5737:5738   */\n      0x00\n        /* \"#utility.yul\":5733:5746   */\n      shr\n        /* \"#utility.yul\":5712:5746   */\n      swap1\n      pop\n        /* \"#utility.yul\":5651:5753   */\n      swap2\n      swap1\n      pop\n      jump\t// out\n        /* \"#utility.yul\":5759:5881   */\n    tag_43:\n        /* \"#utility.yul\":5832:5856   */\n      tag_126\n        /* \"#utility.yul\":5850:5855   */\n      dup2\n        /* \"#utility.yul\":5832:5856   */\n      tag_82\n      jump\t// in\n    tag_126:\n        /* \"#utility.yul\":5825:5830   */\n      dup2\n        /* \"#utility.yul\":5822:5857   */\n      eq\n        /* \"#utility.yul\":5812:5875   */\n      tag_127\n      jumpi\n        /* \"#utility.yul\":5871:5872   */\n      0x00\n        /* \"#utility.yul\":5868:5869   */\n      dup1\n        /* \"#utility.yul\":5861:5873   */\n      revert\n        /* \"#utility.yul\":5812:5875   */\n    tag_127:\n        /* \"#utility.yul\":5759:5881   */\n      pop\n      jump\t// out\n\n    auxdata: 0xa26469706673582212205465f6347f58c3fee41951148d36441dc2e65057ac77df7baaf2f5cf8d266b9364736f6c63430008070033\n}\n",
				"bytecode": {
					"linkReferences": {},
					"object": "608060405234801561001057600080fd5b50336000806101000a81548173ffffffffffffffffffffffffffffffffffffffff021916908373ffffffffffffffffffffffffffffffffffffffff160217905550610552806100606000396000f3fe6080604052600436106100435760003560e01c806312065fe0146100c657806335c1d349146100f1578063481c6a751461012e5780635ec01e4d14610159576100c1565b366100c157670de0b6b3a7640000341461005c57600080fd5b6001339080600181540180825580915050600190039060005260206000200160009091909190916101000a81548173ffffffffffffffffffffffffffffffffffffffff021916908373ffffffffffffffffffffffffffffffffffffffff160217905550005b600080fd5b3480156100d257600080fd5b506100db610184565b6040516100e891906103fb565b60405180910390f35b3480156100fd57600080fd5b506101186004803603810190610113919061028f565b6101e5565b60405161012591906103e0565b60405180910390f35b34801561013a57600080fd5b50610143610224565b60405161015091906103c5565b60405180910390f35b34801561016557600080fd5b5061016e610248565b60405161017b91906103fb565b60405180910390f35b60008060009054906101000a900473ffffffffffffffffffffffffffffffffffffffff1673ffffffffffffffffffffffffffffffffffffffff163373ffffffffffffffffffffffffffffffffffffffff16146101df57600080fd5b47905090565b600181815481106101f557600080fd5b906000526020600020016000915054906101000a900473ffffffffffffffffffffffffffffffffffffffff1681565b60008054906101000a900473ffffffffffffffffffffffffffffffffffffffff1681565b6000444260016040516020016102609392919061038c565b604051602081830303815290604052805190602001205090565b60008135905061028981610505565b92915050565b6000602082840312156102a5576102a46104f3565b5b60006102b38482850161027a565b91505092915050565b60006102c883836102e3565b60208301905092915050565b6102dd81610480565b82525050565b6102ec81610480565b82525050565b6102fb8161046e565b82525050565b600061030c8261042b565b6103168185610443565b935061032183610416565b8060005b8381101561035957610336826104e0565b61034088826102bc565b975061034b83610436565b925050600181019050610325565b5085935050505092915050565b61036f816104b2565b82525050565b610386610381826104b2565b6104d6565b82525050565b60006103988286610375565b6020820191506103a88285610375565b6020820191506103b88284610301565b9150819050949350505050565b60006020820190506103da60008301846102f2565b92915050565b60006020820190506103f560008301846102d4565b92915050565b60006020820190506104106000830184610366565b92915050565b60008190508160005260206000209050919050565b600081549050919050565b6000600182019050919050565b600081905092915050565b600073ffffffffffffffffffffffffffffffffffffffff82169050919050565b600061047982610492565b9050919050565b600061048b82610492565b9050919050565b600073ffffffffffffffffffffffffffffffffffffffff82169050919050565b6000819050919050565b60006104cf6104ca836104f8565b61044e565b9050919050565b6000819050919050565b60006104ec82546104bc565b9050919050565b600080fd5b60008160001c9050919050565b61050e816104b2565b811461051957600080fd5b5056fea26469706673582212205465f6347f58c3fee41951148d36441dc2e65057ac77df7baaf2f5cf8d266b9364736f6c63430008070033",
					"opcodes": "PUSH1 0x80 PUSH1 0x40 MSTORE CALLVALUE DUP1 ISZERO PUSH2 0x10 JUMPI PUSH1 0x0 DUP1 REVERT JUMPDEST POP CALLER PUSH1 0x0 DUP1 PUSH2 0x100 EXP DUP2 SLOAD DUP2 PUSH20 0xFFFFFFFFFFFFFFFFFFFFFFFFFFFFFFFFFFFFFFFF MUL NOT AND SWAP1 DUP4 PUSH20 0xFFFFFFFFFFFFFFFFFFFFFFFFFFFFFFFFFFFFFFFF AND MUL OR SWAP1 SSTORE POP PUSH2 0x552 DUP1 PUSH2 0x60 PUSH1 0x0 CODECOPY PUSH1 0x0 RETURN INVALID PUSH1 0x80 PUSH1 0x40 MSTORE PUSH1 0x4 CALLDATASIZE LT PUSH2 0x43 JUMPI PUSH1 0x0 CALLDATALOAD PUSH1 0xE0 SHR DUP1 PUSH4 0x12065FE0 EQ PUSH2 0xC6 JUMPI DUP1 PUSH4 0x35C1D349 EQ PUSH2 0xF1 JUMPI DUP1 PUSH4 0x481C6A75 EQ PUSH2 0x12E JUMPI DUP1 PUSH4 0x5EC01E4D EQ PUSH2 0x159 JUMPI PUSH2 0xC1 JUMP JUMPDEST CALLDATASIZE PUSH2 0xC1 JUMPI PUSH8 0xDE0B6B3A7640000 CALLVALUE EQ PUSH2 0x5C JUMPI PUSH1 0x0 DUP1 REVERT JUMPDEST PUSH1 0x1 CALLER SWAP1 DUP1 PUSH1 0x1 DUP2 SLOAD ADD DUP1 DUP3 SSTORE DUP1 SWAP2 POP POP PUSH1 0x1 SWAP1 SUB SWAP1 PUSH1 0x0 MSTORE PUSH1 0x20 PUSH1 0x0 KECCAK256 ADD PUSH1 0x0 SWAP1 SWAP2 SWAP1 SWAP2 SWAP1 SWAP2 PUSH2 0x100 EXP DUP2 SLOAD DUP2 PUSH20 0xFFFFFFFFFFFFFFFFFFFFFFFFFFFFFFFFFFFFFFFF MUL NOT AND SWAP1 DUP4 PUSH20 0xFFFFFFFFFFFFFFFFFFFFFFFFFFFFFFFFFFFFFFFF AND MUL OR SWAP1 SSTORE POP STOP JUMPDEST PUSH1 0x0 DUP1 REVERT JUMPDEST CALLVALUE DUP1 ISZERO PUSH2 0xD2 JUMPI PUSH1 0x0 DUP1 REVERT JUMPDEST POP PUSH2 0xDB PUSH2 0x184 JUMP JUMPDEST PUSH1 0x40 MLOAD PUSH2 0xE8 SWAP2 SWAP1 PUSH2 0x3FB JUMP JUMPDEST PUSH1 0x40 MLOAD DUP1 SWAP2 SUB SWAP1 RETURN JUMPDEST CALLVALUE DUP1 ISZERO PUSH2 0xFD JUMPI PUSH1 0x0 DUP1 REVERT JUMPDEST POP PUSH2 0x118 PUSH1 0x4 DUP1 CALLDATASIZE SUB DUP2 ADD SWAP1 PUSH2 0x113 SWAP2 SWAP1 PUSH2 0x28F JUMP JUMPDEST PUSH2 0x1E5 JUMP JUMPDEST PUSH1 0x40 MLOAD PUSH2 0x125 SWAP2 SWAP1 PUSH2 0x3E0 JUMP JUMPDEST PUSH1 0x40 MLOAD DUP1 SWAP2 SUB SWAP1 RETURN JUMPDEST CALLVALUE DUP1 ISZERO PUSH2 0x13A JUMPI PUSH1 0x0 DUP1 REVERT JUMPDEST POP PUSH2 0x143 PUSH2 0x224 JUMP JUMPDEST PUSH1 0x40 MLOAD PUSH2 0x150 SWAP2 SWAP1 PUSH2 0x3C5 JUMP JUMPDEST PUSH1 0x40 MLOAD DUP1 SWAP2 SUB SWAP1 RETURN JUMPDEST CALLVALUE DUP1 ISZERO PUSH2 0x165 JUMPI PUSH1 0x0 DUP1 REVERT JUMPDEST POP PUSH2 0x16E PUSH2 0x248 JUMP JUMPDEST PUSH1 0x40 MLOAD PUSH2 0x17B SWAP2 SWAP1 PUSH2 0x3FB JUMP JUMPDEST PUSH1 0x40 MLOAD DUP1 SWAP2 SUB SWAP1 RETURN JUMPDEST PUSH1 0x0 DUP1 PUSH1 0x0 SWAP1 SLOAD SWAP1 PUSH2 0x100 EXP SWAP1 DIV PUSH20 0xFFFFFFFFFFFFFFFFFFFFFFFFFFFFFFFFFFFFFFFF AND PUSH20 0xFFFFFFFFFFFFFFFFFFFFFFFFFFFFFFFFFFFFFFFF AND CALLER PUSH20 0xFFFFFFFFFFFFFFFFFFFFFFFFFFFFFFFFFFFFFFFF AND EQ PUSH2 0x1DF JUMPI PUSH1 0x0 DUP1 REVERT JUMPDEST SELFBALANCE SWAP1 POP SWAP1 JUMP JUMPDEST PUSH1 0x1 DUP2 DUP2 SLOAD DUP2 LT PUSH2 0x1F5 JUMPI PUSH1 0x0 DUP1 REVERT JUMPDEST SWAP1 PUSH1 0x0 MSTORE PUSH1 0x20 PUSH1 0x0 KECCAK256 ADD PUSH1 0x0 SWAP2 POP SLOAD SWAP1 PUSH2 0x100 EXP SWAP1 DIV PUSH20 0xFFFFFFFFFFFFFFFFFFFFFFFFFFFFFFFFFFFFFFFF AND DUP2 JUMP JUMPDEST PUSH1 0x0 DUP1 SLOAD SWAP1 PUSH2 0x100 EXP SWAP1 DIV PUSH20 0xFFFFFFFFFFFFFFFFFFFFFFFFFFFFFFFFFFFFFFFF AND DUP2 JUMP JUMPDEST PUSH1 0x0 DIFFICULTY TIMESTAMP PUSH1 0x1 PUSH1 0x40 MLOAD PUSH1 0x20 ADD PUSH2 0x260 SWAP4 SWAP3 SWAP2 SWAP1 PUSH2 0x38C JUMP JUMPDEST PUSH1 0x40 MLOAD PUSH1 0x20 DUP2 DUP4 SUB SUB DUP2 MSTORE SWAP1 PUSH1 0x40 MSTORE DUP1 MLOAD SWAP1 PUSH1 0x20 ADD KECCAK256 POP SWAP1 JUMP JUMPDEST PUSH1 0x0 DUP2 CALLDATALOAD SWAP1 POP PUSH2 0x289 DUP2 PUSH2 0x505 JUMP JUMPDEST SWAP3 SWAP2 POP POP JUMP JUMPDEST PUSH1 0x0 PUSH1 0x20 DUP3 DUP5 SUB SLT ISZERO PUSH2 0x2A5 JUMPI PUSH2 0x2A4 PUSH2 0x4F3 JUMP JUMPDEST JUMPDEST PUSH1 0x0 PUSH2 0x2B3 DUP5 DUP3 DUP6 ADD PUSH2 0x27A JUMP JUMPDEST SWAP2 POP POP SWAP3 SWAP2 POP POP JUMP JUMPDEST PUSH1 0x0 PUSH2 0x2C8 DUP4 DUP4 PUSH2 0x2E3 JUMP JUMPDEST PUSH1 0x20 DUP4 ADD SWAP1 POP SWAP3 SWAP2 POP POP JUMP JUMPDEST PUSH2 0x2DD DUP2 PUSH2 0x480 JUMP JUMPDEST DUP3 MSTORE POP POP JUMP JUMPDEST PUSH2 0x2EC DUP2 PUSH2 0x480 JUMP JUMPDEST DUP3 MSTORE POP POP JUMP JUMPDEST PUSH2 0x2FB DUP2 PUSH2 0x46E JUMP JUMPDEST DUP3 MSTORE POP POP JUMP JUMPDEST PUSH1 0x0 PUSH2 0x30C DUP3 PUSH2 0x42B JUMP JUMPDEST PUSH2 0x316 DUP2 DUP6 PUSH2 0x443 JUMP JUMPDEST SWAP4 POP PUSH2 0x321 DUP4 PUSH2 0x416 JUMP JUMPDEST DUP1 PUSH1 0x0 JUMPDEST DUP4 DUP2 LT ISZERO PUSH2 0x359 JUMPI PUSH2 0x336 DUP3 PUSH2 0x4E0 JUMP JUMPDEST PUSH2 0x340 DUP9 DUP3 PUSH2 0x2BC JUMP JUMPDEST SWAP8 POP PUSH2 0x34B DUP4 PUSH2 0x436 JUMP JUMPDEST SWAP3 POP POP PUSH1 0x1 DUP2 ADD SWAP1 POP PUSH2 0x325 JUMP JUMPDEST POP DUP6 SWAP4 POP POP POP POP SWAP3 SWAP2 POP POP JUMP JUMPDEST PUSH2 0x36F DUP2 PUSH2 0x4B2 JUMP JUMPDEST DUP3 MSTORE POP POP JUMP JUMPDEST PUSH2 0x386 PUSH2 0x381 DUP3 PUSH2 0x4B2 JUMP JUMPDEST PUSH2 0x4D6 JUMP JUMPDEST DUP3 MSTORE POP POP JUMP JUMPDEST PUSH1 0x0 PUSH2 0x398 DUP3 DUP7 PUSH2 0x375 JUMP JUMPDEST PUSH1 0x20 DUP3 ADD SWAP2 POP PUSH2 0x3A8 DUP3 DUP6 PUSH2 0x375 JUMP JUMPDEST PUSH1 0x20 DUP3 ADD SWAP2 POP PUSH2 0x3B8 DUP3 DUP5 PUSH2 0x301 JUMP JUMPDEST SWAP2 POP DUP2 SWAP1 POP SWAP5 SWAP4 POP POP POP POP JUMP JUMPDEST PUSH1 0x0 PUSH1 0x20 DUP3 ADD SWAP1 POP PUSH2 0x3DA PUSH1 0x0 DUP4 ADD DUP5 PUSH2 0x2F2 JUMP JUMPDEST SWAP3 SWAP2 POP POP JUMP JUMPDEST PUSH1 0x0 PUSH1 0x20 DUP3 ADD SWAP1 POP PUSH2 0x3F5 PUSH1 0x0 DUP4 ADD DUP5 PUSH2 0x2D4 JUMP JUMPDEST SWAP3 SWAP2 POP POP JUMP JUMPDEST PUSH1 0x0 PUSH1 0x20 DUP3 ADD SWAP1 POP PUSH2 0x410 PUSH1 0x0 DUP4 ADD DUP5 PUSH2 0x366 JUMP JUMPDEST SWAP3 SWAP2 POP POP JUMP JUMPDEST PUSH1 0x0 DUP2 SWAP1 POP DUP2 PUSH1 0x0 MSTORE PUSH1 0x20 PUSH1 0x0 KECCAK256 SWAP1 POP SWAP2 SWAP1 POP JUMP JUMPDEST PUSH1 0x0 DUP2 SLOAD SWAP1 POP SWAP2 SWAP1 POP JUMP JUMPDEST PUSH1 0x0 PUSH1 0x1 DUP3 ADD SWAP1 POP SWAP2 SWAP1 POP JUMP JUMPDEST PUSH1 0x0 DUP2 SWAP1 POP SWAP3 SWAP2 POP POP JUMP JUMPDEST PUSH1 0x0 PUSH20 0xFFFFFFFFFFFFFFFFFFFFFFFFFFFFFFFFFFFFFFFF DUP3 AND SWAP1 POP SWAP2 SWAP1 POP JUMP JUMPDEST PUSH1 0x0 PUSH2 0x479 DUP3 PUSH2 0x492 JUMP JUMPDEST SWAP1 POP SWAP2 SWAP1 POP JUMP JUMPDEST PUSH1 0x0 PUSH2 0x48B DUP3 PUSH2 0x492 JUMP JUMPDEST SWAP1 POP SWAP2 SWAP1 POP JUMP JUMPDEST PUSH1 0x0 PUSH20 0xFFFFFFFFFFFFFFFFFFFFFFFFFFFFFFFFFFFFFFFF DUP3 AND SWAP1 POP SWAP2 SWAP1 POP JUMP JUMPDEST PUSH1 0x0 DUP2 SWAP1 POP SWAP2 SWAP1 POP JUMP JUMPDEST PUSH1 0x0 PUSH2 0x4CF PUSH2 0x4CA DUP4 PUSH2 0x4F8 JUMP JUMPDEST PUSH2 0x44E JUMP JUMPDEST SWAP1 POP SWAP2 SWAP1 POP JUMP JUMPDEST PUSH1 0x0 DUP2 SWAP1 POP SWAP2 SWAP1 POP JUMP JUMPDEST PUSH1 0x0 PUSH2 0x4EC DUP3 SLOAD PUSH2 0x4BC JUMP JUMPDEST SWAP1 POP SWAP2 SWAP1 POP JUMP JUMPDEST PUSH1 0x0 DUP1 REVERT JUMPDEST PUSH1 0x0 DUP2 PUSH1 0x0 SHR SWAP1 POP SWAP2 SWAP1 POP JUMP JUMPDEST PUSH2 0x50E DUP2 PUSH2 0x4B2 JUMP JUMPDEST DUP2 EQ PUSH2 0x519 JUMPI PUSH1 0x0 DUP1 REVERT JUMPDEST POP JUMP INVALID LOG2 PUSH5 0x6970667358 0x22 SLT KECCAK256 SLOAD PUSH6 0xF6347F58C3FE 0xE4 NOT MLOAD EQ DUP14 CALLDATASIZE DIFFICULTY SAR 0xC2 0xE6 POP JUMPI 0xAC PUSH24 0xDF7BAAF2F5CF8D266B9364736F6C63430008070033000000 "
				},
				"gasEstimates": {
					"creation": {
						"codeDepositCost": "272400",
						"executionCost": "24578",
						"totalCost": "296978"
					},
					"external": {
						"getBalance()": "2487",
						"manager()": "2533",
						"participants(uint256)": "4956",
						"random()": "infinite"
					}
				},
				"methodIdentifiers": {
					"getBalance()": "12065fe0",
					"manager()": "481c6a75",
					"participants(uint256)": "35c1d349",
					"random()": "5ec01e4d"
				}
			},
			"storageLayout": {
				"storage": [
					{
						"astId": 3,
						"contract": "Lottery.sol:Lottery",
						"label": "manager",
						"offset": 0,
						"slot": "0",
						"type": "t_address"
					},
					{
						"astId": 6,
						"contract": "Lottery.sol:Lottery",
						"label": "participants",
						"offset": 0,
						"slot": "1",
						"type": "t_array(t_address_payable)dyn_storage"
					}
				],
				"types": {
					"t_address": {
						"encoding": "inplace",
						"label": "address",
						"numberOfBytes": "20"
					},
					"t_address_payable": {
						"encoding": "inplace",
						"label": "address payable",
						"numberOfBytes": "20"
					},
					"t_array(t_address_payable)dyn_storage": {
						"base": "t_address_payable",
						"encoding": "dynamic_array",
						"label": "address payable[]",
						"numberOfBytes": "32"
					}
				}
			},
			"userdoc": {
				"kind": "user",
				"methods": {},
				"version": 1
			}
		}
	}
}